S01700004F6E44656D616E64547261666669632E7372656348
S11300000C942A000C9463000C943C000C943C0067
S11300100C943C000C943C000C943C000C943C006C
S11300200C943C000C943C000C943C000C943C005C
S11300300C943C000C943C000C943C000C943C004C
S11300400C943C000C943C000C943C000C943C003C
S11300500C943C0011241FBECFE5D8E0DEBFCDBF19
S113006020E0A0E6B0E001C01D92A836B207E1F797
S11300700E944C020C94F4040C94000083E08093DE
S113008066008093670061E081E40E947F0062E083
S113009081E40E947F0060E081E40E947F0061E0CF
S11300A082E40E947F0062E082E40E947F0060E0BC
S11300B082E40E947F0040E064E482E00E94C40085
S11300C00E949200FDCF1F920F920FB60F9211243F
S11300D08F93D89B03C0109266000BC08091670079
S11300E0843021F482E08093660003C081E0809331
S11300F066008F910F900FBE0F901F901895982F48
S1130100862F41E0692F0E94C400813009F080E00D
S11301100895982F862F692F0E940402813009F0D8
S113012080E008950E94E80462E081E40E947F0276
S1130130909166009130A1F061E081E40E94BE02DA
S113014090916600923021F060E081E40E945102B7
S113015090916600992321F061E081E40E94BE023F
S113016090916600911102C00E940B039091660069
S11301709150923010F40E94E80393E0909366004B
S1130180813009F080E00895623469F118F4613433
S113019041F08DC0633409F448C0643409F466C086
S11301A086C041110FC04AB321E030E0B90102C05A
S11301B0660F771F8A95E2F7CB01809584238ABB6B
S11301C081E07EC0413009F074C04AB321E030E0E0
S11301D0B90102C0660F771F8A95E2F7CB01842B21
S11301E08ABB81E06DC041110FC047B321E030E00C
S11301F0B90102C0660F771F8A95E2F7CB0180959B
S1130200842387BB81E05CC0413009F054C047B30C
S113021021E030E0B90102C0660F771F8A95E2F74A
S1130220CB01842B87BB81E04BC041110FC044B389
S113023021E030E0B90102C0660F771F8A95E2F72A
S1130240CB018095842384BB81E03AC04130A9F579
S113025044B321E030E0B90102C0660F771F8A95EC
S1130260E2F7CB01842B84BB81E02AC041110FC08B
S113027041B321E030E0B90102C0660F771F8A95CF
S1130280E2F7CB018095842381BB81E019C0413022
S1130290B1F441B321E030E0B90102C0660F771F29
S11302A08A95E2F7CB01842B81BB81E009C082E00F
S11302B007C081E005C081E003C081E001C081E0A6
S11302C0813009F080E00895623469F118F46134F2
S11302D041F08DC0633409F448C0643409F466C045
S11302E086C041110FC04BB321E030E0B90102C018
S11302F0660F771F8A95E2F7CB01809584238BBB29
S113030081E07EC0413009F074C04BB321E030E09D
S1130310B90102C0660F771F8A95E2F7CB01842BDF
S11303208BBB81E06DC041110FC048B321E030E0C8
S1130330B90102C0660F771F8A95E2F7CB01809559
S1130340842388BB81E05CC0413009F054C048B3C9
S113035021E030E0B90102C0660F771F8A95E2F709
S1130360CB01842B88BB81E04BC041110FC045B346
S113037021E030E0B90102C0660F771F8A95E2F7E9
S1130380CB018095842385BB81E03AC04130A9F537
S113039045B321E030E0B90102C0660F771F8A95AA
S11303A0E2F7CB01842B85BB81E02AC041110FC049
S11303B042B321E030E0B90102C0660F771F8A958D
S11303C0E2F7CB018095842382BB81E019C04130E0
S11303D0B1F442B321E030E0B90102C0660F771FE7
S11303E08A95E2F7CB01842B82BB81E009C082E0CD
S11303F007C081E005C081E003C081E001C081E065
S1130400813009F080E008956234B9F018F4613461
S113041031F03DC06334F9F0643459F138C04BB362
S113042021E030E0B90102C0660F771F8A95E2F738
S1130430CB0184278BBB81E02BC048B321E030E0A3
S1130440B90102C0660F771F8A95E2F7CB018427B2
S113045088BB81E01DC045B321E030E0B90102C092
S1130460660F771F8A95E2F7CB01842785BB81E06D
S11304700FC042B321E030E0B90102C0660F771F1C
S11304808A95E2F7CB01842782BB81E001C082E038
S1130490813009F080E008950E943E0080E090E001
S11304A00895982F862F109261001092600041E009
S11304B0692F0E94640183B7856083BF13C008B6A7
S11304C000FEFDCF80916600882391F088B781609B
S11304D088BF8091600090916100019690936100C3
S11304E0809360008091600090916100449738F39C
S11304F0109261001092600013BE80E00895CF93C3
S1130500DF93D82FC62F109261001092600041E053
S1130510682F8C2F0E94640183B7856083BF18C045
S113052008B600FEFDCF80916600813029F441E0D9
S113053062E480E00E94640188B7816088BF809192
S11305406000909161000196909361008093600037
S11305508091600090916100449710F310926100C3
S11305601092600013BE40E06D2F8C2F0E94640136
S1130570813009F080E0DF91CF910895CF93DF932C
S1130580D82FC62F84E080936700109261001092E8
S1130590600040E06D2F8C2F0E9464016C2F8D2F22
S11305A00E94890083B7856083BF1CC008B600FE23
S11305B0FDCF80916600823029F441E062E480E05E
S11305C00E9464016C2F8D2F0E94890088B781607E
S11305D088BF8091600090916100019690936100C2
S11305E08093600080916000909161004497F0F2E4
S11305F0109261001092600040E06D2F8C2F0E94D9
S1130600640113BE93E090936700813009F080E0A9
S1130610DF91CF9108950F9380916600811117C0E7
S11306208150823030F022E042E460E081E40E94B4
S1130630FF0302E021E042E461E081E40E9440041F
S113064020E042E462E081E40E94A20401C082E06E
S1130650909166009150923068F402E021E042E407
S113066061E081E40E94400420E042E462E081E42D
S11306700E94A20493E090936600813009F080E028
S11306800F9108950F931F93CF93DF93082F162F85
S1130690D42FC22F109263001092620041E0682FA1
S11306A0812F0E94640141E06D2F8C2F0E94640110
S11306B041E0602F812F0E94640141E06D2F8C2F57
S11306C00E946401612F802F0E9489006C2F8D2F5E
S11306D00E94890083B7856083BF17C008B600FEF7
S11306E0FDCF612F802F0E9489006C2F8D2F0E94D7
S11306F0890088B7816088BF80916200909163000F
S113070001969093630080936200809162009091BF
S11307106300449718F3109263001092620040E063
S1130720602F812F0E94640140E06D2F8C2F0E9466
S1130730640113BE813009F080E0DF91CF911F91F5
S11307400F9108950F931F93CF93DF93082F162FC4
S1130750D42FC22F109263001092620041E0682FE0
S1130760812F0E94640141E06D2F8C2F0E9464014F
S113077083B7856083BF0FC008B600FEFDCF88B77E
S1130780816088BF8091620090916300019690938C
S113079063008093620080916200909163004497AB
S11307A058F3109263001092620013BE40E0602F71
S11307B0812F0E94640140E06D2F8C2F0E94640100
S11307C0813009F080E0DF91CF911F910F9108955E
S11307D040E062E480E00E94640121E042E461E0E0
S11307E081E40E94420322E042E460E081E40E944A
S11307F0A2030E940B03813009F080E008950F9357
S11308001F93CF93DF93D82FC62F042F122F10924C
S113081065001092640041E0682F8C2F0E946401EF
S113082041E0602F812F0E94640183B7856083BFFC
S11308300FC008B600FEFDCF88B7816088BF8091E5
S11308406400909165000196909365008093640024
S11308508091640090916500449758F3109265006C
S11308601092640013BE40E06D2F8C2F0E9464012F
S1130870813009F080E0DF91CF911F910F910895AD
S1130880FF920F931F93CF93DF93F82E162FC42F4D
S1130890D22F109265001092640041E0682F812FDE
S11308A00E94640141E06C2F8D2F0E94640141E09D
S11308B06C2F802F0E946401612F8F2D0E9489006C
S11308C06D2F8C2F0E94890083B7856083BF17C06A
S11308D008B600FEFDCF612F8F2D0E9489006D2F79
S11308E08C2F0E94890088B7816088BF8091640042
S11308F090916500019690936500809364008091C7
S1130900640090916500449718F31092650010926A
S1130910640040E06F2D812F0E94640140E06C2F41
S11309208D2F0E94640140E06C2F802F0E9464018F
S113093013BE813009F080E0DF91CF911F910F91B8
S1130940FF9008950F931F93CF93DF93082F162FD3
S1130950D42FC22F109265001092640041E0682FDA
S1130960812F0E94640141E06D2F8C2F0E9464014D
S113097083B7856083BF0FC008B600FEFDCF88B77C
S1130980816088BF80916400909165000196909386
S113099065008093640080916400909165004497A1
S11309A058F3109265001092640013BE40E0602F6B
S11309B0812F0E94640140E06D2F8C2F0E946401FE
S11309C0813009F080E0DF91CF911F910F9108955C
S11309D082B78C6082BF13BE789485B7836085BF6D
S10F09E08BB780648BBF0895F894FFCFA0
S9030000FC
